:100000000C942A000C9434000C9434000C943400AA
:100010000C9434000C9434000C9434000C94340090
:100020000C9434000C9434000C9434000C94340080
:100030000C9434000C9434000C9434000C94340070
:100040000C9434000C9434000C9434000C94340060
:100050000C94340011241FBECFE5D8E0DEBFCDBF25
:100060000E944A000C946C000C94000081B38068DC
:1000700081BB82B3806882BB85B5886485BD85B548
:10008000816285BD089581B38F7B81BB82B380641B
:1000900082BB08950E9436000E94430020E080E069
:1000A00090E0EFE3FCE93197F1F700C00000869B98
:1000B00005C0211102C021E001C020E0213031F44F
:1000C0008F3F910574F7019683BDEBCF1816190683
:0C00D00044F7019783BDE5CFF894FFCF03
:00000001FF
